:020000040800F2
:10000000A008002079020008D9340008892E0008D1
:10001000D534000891040008C53B0008000000002A
:10002000000000000000000000000000E1340008B3
:10003000AD04000800000000DD340008E5340008CD
:10004000930200089302000893020008930200083C
:10005000930200089302000893020008930200082C
:100060009302000893020008930200089504000818
:10007000A1040008930200089302000893020008FC
:100080009302000800000000930200089302000899
:1000900093020008930200089302000893020008EC
:1000A00093020008930200089302000893020008DC
:1000B00093020008930200089302000893020008CC
:1000C00093020008930200089302000893020008BC
:1000D0009302000893020008B93B0008930200084D
:1000E000930200089302000893020008930200089C
:1000F0009302000893020008930200080000000029
:1001000000000000930200080000000093020008B5
:100110009302000800000000930200089302000808
:10012000930200089302000893020008930200085B
:100130009302000800000000000000009302000885
:100140009302000893020008000000000000000075
:10015000000000000000000000000000000000009F
:1001600000000000000000000000000093020008F2
:1001700093020008000000000000000000000000E2
:1001800000000000930200080000000000000000D2
:10019000000000000000000000000000000000005F
:1001A0000000000000000000930200089302000815
:1001B0009302000893020008930200080000000068
:1001C0000000000093020008000000000000000092
:1001D000930200089302000800F002F800F03CF8D7
:1001E0000AA090E8000C82448344AAF10107DA4592
:1001F00001D100F031F8AFF2090EBAE80F0013F0A8
:10020000010F18BFFB1A43F00103184764570000A1
:1002100084570000103A24BF78C878C1FAD8520732
:1002200024BF30C830C144BF04680C607047000070
:100230000023002400250026103A28BF78C1FBD8EF
:10024000520728BF30C148BF0B6070471FB505F08B
:10025000BEFA1FBD10B510BD00F0E4F81146FFF75F
:10026000F5FF03F041FD00F002F903B4FFF7F2FFE0
:1002700003BC00F005F90000094880470948004721
:10028000FEE7FEE7FEE7FEE7FEE7FEE7FEE7FEE746
:10029000FEE7FEE704480549054A064B70470000A3
:1002A000E9340008D9010008A0020020A0080020BD
:1002B000A0040020A004002053EA020C00F0698092
:1002C0002DE9F04B4FF00006002B1FBFB3FA83F56A
:1002D00003FA05F424FA05F65E4012BF1643B2FA9B
:1002E00082F502FA05F4C5F120051EBF22FA05FCCD
:1002F00044EA0C04203556EA044C4FEA144418BF73
:10030000641C4FF000084FF00009904271EB030CA1
:1003100039D3002919BFB1FA81F701FA07F6B0FA0B
:1003200080F700FA07F6C7F120071EBF20FA07FC86
:1003300046EA0C062037B6FBF4FCA7EB0507103F96
:1003400007F01F0BCBF120062CFA06F60CFA0BFB7C
:1003500044BFB3460026202FA4BF5E464FF0000BDB
:100360005BEA060C08BF4FF0010B19EB0B0948EBD9
:100370000608ABFB027C06FB02CC0BFB03CCC01BCC
:1003800071EB0C01C1E70B46024641464846BDE809
:10039000F08B13B5084318BF4FF0FF300146AFF3A1
:1003A0000080BDE81C4070474FF0000200B51346C6
:1003B00094469646203922BFA0E80C50A0E80C5085
:1003C000B1F12001BFF4F7AF090728BFA0E80C5036
:1003D00048BF0CC05DF804EB890028BF40F8042B2F
:1003E00008BF704748BF20F8022B11F0804F18BF9C
:1003F00000F8012B704770477047704710B500F048
:1004000009F8006810BD10B5044600F003F8046058
:1004100010BD0000004870473000002000487047C1
:10042000300000207546FFF7F9FFAE46050069462B
:10043000534620F00700854618B020B5FFF72AFF85
:10044000BDE820404FF000064FF000074FF00008D5
:100450004FF0000BAC46ACE8C009ACE8C009ACE812
:10046000C009ACE8C00921F007018D46704710B5FE
:100470000446AFF300802046BDE81040FFF7F5BE0C
:1004800001491820ABBEFEE72600020070470000BD
:10049000FEE7000040F2AC00C2F2000000F084B8B9
:1004A00040F20C10C2F2000000F07EB8704700006D
:1004B000EFF3108072B600BFFEE7000080B5014682
:1004C00090F82500022825D10868D1E910CE8A6C61
:1004D000036823F00E030360136823F48073136032
:1004E000026822F0010202600EF01F00012202FAEF
:1004F00000F0CCF80400D1E913205060486D68B1D9
:10050000026822F480720260D1E916024260002083
:1005100005E000BF0420C863012000E000200122A4
:1005200081F82520002281F8242080BD80B590F834
:10053000251002292ED10168D0E910CE826C0B68FB
:1005400023F00E030B600B6823F001030B601168AE
:1005500021F4807111600EF01F02012101FA02F2F4
:10056000CCF80420D0E913325A60426D32B11368DE
:1005700023F480731360D0E91623536080F82510AC
:10058000826B002180F824100AB1904700210846B0
:1005900080BD00BF0421C1630121002280F8251025
:1005A00080F82420084680BDB0B5D0E910C30268A9
:1005B000DCF8001003F01F030424D2F800E09C4094
:1005C0000C4218BF1EF0040522D102249C400C42AC
:1005D00018BF1EF0020529D1D940090724D51EF005
:1005E000080108BFB0BD116821F00E0111600121A2
:1005F00001FA03F2CCF80420C16380F82510416BA6
:10060000002280F8242079B1BDE8B040084700BF3F
:100610001168890603D4116821F004011160CCF837
:100620000440016B0029EFD1B0BD00BF11688906FD
:1006300006D4116821F00A011160012180F825100B
:10064000CCF80440C16A0022002980F82420DBD1C4
:10065000EAE7000000284FF0010100F08E802DE94C
:10066000F04740F2000CC4F2020C03684FF6F83277
:100670000CF5816ECBF6FD72734538BF02F58062D2
:100680004CF6CD441A44CCF6CC44A2FB042803F02B
:10069000FC02A2F10802A2FB04290CF580656FF0B0
:1006A0000304D0E90262D0F810A03CBF0025C4F2D8
:1006B000020504EA9804C0E91054022580F8255088
:1006C0001D6847F6F07725EA07073A43476942EA8B
:1006D0000A0285693A43C7692A43056A3A432A43AD
:1006E00032431A600CF50262734538BF0CF50062A4
:1006F000A3180CF50862C264C9F3041240F6840C16
:1007000001FA02F2B6F5804FC4F2020C836402656E
:1007100006D1002141601960CCF800201EE000BF26
:1007200041685FFA81FE013903294FF00001C3F8E7
:1007300000E0CCF8002011D8AEF101020CEB8207EA
:1007400047F87C1F02F01F01012202FA01F30CF1AD
:10075000BC023946CCF8C03002E000BF00220023C2
:1007600000F1540C8CE80E0000210122C16380F8D6
:10077000252080F82410BDE8F047084670470000A7
:10078000B0B5044600F0E6F8054640F22000C2F29B
:1007900000004068611C18BF044400BF00F0DAF894
:1007A000401BA042FAD3B0BD2DE9F04F82B00D68D6
:1007B000002D00F0CB8041F2004400F13847C4F630
:1007C000000406224FEAB726A04208BF0522052EE4
:1007D00038BF4FEAB722002401274FF0000E002651
:1007E000009209E00D68013635FA06F20EF1040EAA
:1007F00004F1020400F0AA8007FA06FB15EA0B08D0
:10080000F0D0D1F804A003220AF0030CACF10105EA
:10081000A240012D6FEA020910D88268CD6802EA71
:100820000902A5402A4382604268CAF3001522EA01
:100830000B02B5402A43426006E000BFBCF1030F43
:1008400002D14FF0030C21E0C2688D6802EA090270
:10085000A5402A43BCF1020FC26017D16FF003021A
:1008600002EA560202440EF01C030F25D2F820C003
:1008700005FA03FA0D692CEA0A0C05FA03F343EAB8
:100880000C031362D1F804A00AF0030C02680CFAFE
:1008900004F302EA09021A431AF4403F0260A1D0AD
:1008A00041F26003C4F202031A6840F2004942F0C8
:1008B00001021A601A68C4F2010902F001020192F1
:1008C000019A26F003024FF6084A4A44CFF6FF7A0F
:1008D00052F80AC00EF00C050F23009FAB402CEA23
:1008E000030307FA05F52B4342F80A30D9F808C08C
:1008F0004B684CEA0805DA0258BF2CEA080540F2BA
:100900000C4CC9F80850C4F2010CDCF800209F021E
:1009100042EA080558BF22EA0805CCF80050D9F889
:1009200004209D0342EA080758BF22EA0807C9F8D5
:100930000470D9F80020DB0342EA080758BF22EA16
:100940000807C9F8007001274CE700BF02B0BDE8F6
:10095000F08F000040F29420C2F20000006870475F
:1009600090F84120202A03D190F84020012A01D19B
:1009700002207047242280F841200268136823F087
:1009800001031360136823F4805313601368194341
:100990001160116841F001011160202180F84110BF
:1009A000002180F8401008467047000090F8412070
:1009B000202A03D190F84020012A01D1022070475B
:1009C000242280F841200268136823F00103136099
:1009D000136823F4706343EA01211160116841F048
:1009E00001011160202180F84110002180F84010A1
:1009F00008467047002804BF0120704710B5044620
:100A000090F8410028B9002084F84000204600F00A
:100A10006BF9242084F8410094E80910E268016829
:100A2000012A21F00101016023F0706101618168F8
:100A300021F40041816003D14CF40041816007E062
:100A40004CF40441022A816004BF4FF4006141600C
:100A5000416804F1100C41F0007141F40041416023
:100A6000C16821F40041C1609CE80E10114341EAC5
:100A70000321C160216A41EA0C010160016841F073
:100A80000101016000202021606484F8411020638E
:100A900084F8420010BD00002DE9F04F83B00446F9
:100AA00090F8410020280DD1DDF830A0BAF1000FF8
:100AB0000CD0DDF834B0BBF1000F07D094F8400043
:100AC00001280BD1022003B0BDE8F08F4FF4007075
:100AD0006064012003B0BDE8F08F00BF01201F4615
:100AE0001546894684F84000FFF734FF2168064622
:100AF000896909040AD500BFFFF72CFF801B19285C
:100B000000F2E280206880690004F5D40E9922206A
:100B100084F8410040204FF0000884F84200C4F8F7
:100B20004480C4F824A08A46A4F82AB0C4F83480CB
:100B30000091204649462A463B46019602F052FA69
:100B400030B184F84080012003B0BDE8F08F00BFD1
:100B5000618D49F6000040F2000B5546CFF600408B
:100B6000B1F5807FC0F2FF1B0CD321686FF39F2982
:100B70004A680BF51053024042EA09021A434A60E0
:100B8000FF210EE0618D2268CFB253686FF39F2979
:100B9000034043EA074343EA09030BF592373B431B
:100BA00053606F1C4FF0FF0A00F58068218511E04B
:100BB000618D218550F8042FC9B202EA080242EA89
:100BC00001414FF0007241EA090111430160608D5B
:100BD00000285BD02068816949070CD4D7B3002D69
:100BE00070D000BFFFF7B6FE801BA8426CD820680B
:100BF00081694907F6D5406A616A0870606A218D8B
:100C000001306062481E2085618D01396185618DEA
:100C10000029DCD00004DAD12068816909060CD4EF
:100C200037B3002D4ED000BFFFF794FE801BA842C3
:100C30004AD8206881690906F6D5618DB1F5807FB3
:100C4000B6D3A4F828A050F8041F5A4601EA0801B8
:100C5000B9E700BF81694907CDD4816949075CBF05
:100C600081695FEA4171C6D481694907F2D5C2E75B
:100C700081690906E1D4816909065CBF81695FEA7F
:100C80000161DAD481690906F2D5D6E72046294602
:100C9000324602F013FA00287FF41BAF20682021AF
:100CA000C16142684EF60003CFF600631A4042600D
:100CB000002084F8411084F8420084F8400003B01A
:100CC000BDE8F08FFFF746FE606C40F020006064E6
:100CD000202084F84100002084F8420084F840007D
:100CE000012003B0BDE8F08F2DE9F04198B0044633
:100CF00002A8043040214025FFF756FB206845F24A
:100D00000041C4F20001884202D018B0BDE8F08171
:100D100002A8029500F092F9002818BFFFF7C8FB5F
:100D200041F24C05C4F20205286813AC40F0010002
:100D3000286028684FF0120800F001001390139803
:100D40002868002740F0020028602868042600F088
:100D50000200139013984FF4004013904FF090400E
:100D60002146CDF85080CDE915771796FFF71CFD89
:100D70008020CDE9130840F20040C4F6000021466F
:100D8000CDE915771796FFF70FFDE86840F40010DE
:100D9000E860E86800F400100190019818B0BDE820
:100DA000F081000040F2200040F29421C2F20000E5
:100DB000C2F2000140680A681044086070470000F1
:100DC00080B5032000F08CF80F2000F009F800280F
:100DD0001CBF012080BD00F029F8002080BD00006C
:100DE00070B540F22006C2F200067168E1B1044617
:100DF00040F22800C2F200004FF47A720068B2FBA1
:100E0000F1F1B0FBF1F000F09DFE0F2C4FF0010569
:100E100008D838B94FF0FF3021460022002500F0F5
:100E200033F83460284670BD012070BD82B041F2B5
:100E30005800C4F20200816841F0010181608168BC
:100E400001F0010101910199016841F080510160B7
:100E5000006800F080500090009802B000F0E4B804
:100E6000002848BF7047C1B200F01F00012202FAFB
:100E700000F04EF20012CEF2000242EAD10121F05F
:100E8000030108607047000010B54EF60C5CCEF20E
:100E9000000CDCF80030C3F3022E8EF00704042CA3
:100EA00028BF0424BEF103034FF0FF3E0EFA04F402
:100EB00038BF0023A14399400EFA03F39A4311432C
:100EC00000F00F0200F160430901043A03F56443A6
:100ED0006244002848BF02F10C03197010BD0000E5
:100EE0004EF60C51CEF200010A684FF6FF031A408D
:100EF00060F30A2242F0806040F0FD7008607047A5
:100F0000B0F5007F42D0002840F0808047F2140006
:100F1000C4F2000050F8141CC26E01F4C06122F447
:100F20008072B1F5806FC2662ED150F8141C012278
:100F300062F34A2140F8141C40F22801C2F2000179
:100F40000968322251434DF68362C4F21B32A1FB81
:100F50000212910C0268520511D54A1C0FD002688A
:100F600052050CD559B10268520508D5012906D0A1
:100F70000268520503D50229A1F10401EAD10068F3
:100F8000400544BF032070470020704747F214001B
:100F9000C4F2000050F8141CC26E01F4C06142F4A7
:100FA0008072B1F5806FC266EED150F8141C012238
:100FB00062F34A2140F8141C40F22801C2F20001F9
:100FC0000968322251434DF68362C4F21B32A1FB01
:100FD0000212910C0268520511D54A1C0FD002680A
:100FE00052050CD559B10268520508D5012906D021
:100FF0000268520503D50229A1F10401EAD1006873
:10100000400544BF03207047BEE700BF47F214000D
:10101000C4F2000050F8141C022262F34A2140F886
:10102000141C00207047000047F20800C4F20000C2
:10103000016841F480410160704700002DE9F041F2
:1010400082B00446807841F288060007C4F20206A6
:1010500002D400202FE000BF56F8300C10F080586A
:101060000BD156F8300C40F0805046F8300C56F852
:10107000300C00F080500190019847F20007C4F254
:101080000007386840F480703860FFF763FC05465D
:101090003868C00500F1D680FFF75CFC401B0228D1
:1010A000F6D90320B8F1000F05D156F8301C21F015
:1010B000805146F8301C2168CA0713D18A0719D419
:1010C0004A071FD40A0725D48A062BD44A0631D4EE
:1010D0000A0637D4CA053DD48A0543D44A0549D403
:1010E00057E000BF3268636822F003021A4332609F
:1010F0008A07E5D53268A36822F00C021A433260F1
:101100004A07DFD53268E36822F030021A433260C2
:101110000A07D9D53268236922F0C0021A43326027
:101120008A06D3D53268636922F440621A4332607A
:101130004A06CDD53268A36922F440521A43326080
:101140000A06C7D53268E36922F440421A43326086
:10115000CA05C1D53268236A22F440321A4332608C
:101160008A05BBD53268636A22F440221A43326092
:101170004A050ED53268A36A22F440121A43B3F529
:10118000801F326005D156F87C2C42F4801246F85C
:101190007C2C0A050ED53268E36A22F440021A4319
:1011A000B3F5800F326005D156F87C2C42F48012E2
:1011B00046F87C2CCA040ED53268236B22F04072AC
:1011C0001A43B3F1807F326005D156F87C2C42F48B
:1011D000801246F87C2C8A040ED53268636B22F0AC
:1011E00040621A43B3F1006F326005D156F87C2C8F
:1011F00042F4801246F87C2C4A040ED53268A36B68
:1012000022F040621A43B3F1006F326005D156F804
:101210007C2C42F4801246F87C2C09040ED53168EF
:10122000E26B21F040511143B2F1805F316005D192
:1012300056F87C1C41F4803146F87C1C02B0BDE8B5
:10124000F08100BFB06810F4407010D0216C88426B
:101250000BD0B068B16820F4407041F48031B160C7
:10126000B16821F48031B160B060C0070CD1B068C2
:10127000216C20F440700843B0600020B8F1000FEA
:101280007FF419AF11E700BFFFF764FB054641F299
:10129000883700BFB0688007E9D4FFF75BFB401BCD
:1012A000B842F7D9FDE600002DE9F04700286DD0DF
:1012B00042F2000AC4F2020A0446DAF800000D46BF
:1012C00000F00F0088420CD2DAF8000020F00F0086
:1012D0002843CAF80000DAF8000000F00F00A84226
:1012E00054D1216841F20808C807C4F2020803D1AA
:1012F000880740F1D880BDE0606802283AD0032812
:1013000040D158F8082C920140D5D8F80420D8F8DC
:10131000043042F20046C3F3031302F00302D8F88C
:1013200004700133C0F2F406032A04BF43F20066DE
:10133000C0F26E16B6FBF3F2D8F80430C7F30627F6
:101340007A43C3F34163022707EB4303B2FBF3F293
:101350004BF20043C0F2C4439A4261D9D8F800204E
:1013600012F0F00F51D089075AD5A168002957D142
:101370004BE000BF58F8081C89035CBF0120BDE8A2
:10138000F08707E058F8081C490503D40120BDE8A0
:10139000F08700BFD8F8001001F00C0104293FD0FD
:1013A000D8F8001001F00C01082939D0D8F8001045
:1013B00001F00C010C2933D1D8F80410D8F804201E
:1013C00042F20047C2F3031201F00301D8F80430DF
:1013D0000132C0F2F407032904BF43F20067C0F2F0
:1013E0006E17B7FBF2F1D8F80420C3F30623594374
:1013F000C2F34162022303EB4202B1FBF2F14BF272
:101400000042C0F2C44291420AD9D8F80010082222
:1014100062F307114FF00109C8F8001002E000BFA5
:101420004FF00009D8F8001021F003010843C8F874
:101430000000FFF78FFA064641F28837D8F800001F
:10144000616800F00C00B0EB810F07D0FFF782FA63
:10145000801BB842F2D90320BDE8F08721688807D5
:1014600008D4B9F1000F1ED0D8F8000020F0F00029
:1014700017E000BF480705D5D8F8000040F4E06049
:10148000C8F80000080706D5D8F80000072262F364
:101490000D20C8F80000D8F80000A26820F0F00085
:1014A0001043C8F80000DAF8000000F00F00A8426E
:1014B0001BD9DAF8000020F00F002843CAF800001A
:1014C000FFF748FA064641F2883700BFDAF8000015
:1014D00000F00F00A84207D0FFF73CFA801BB8428B
:1014E000F4D90320BDE8F0872168480707D5D8F86C
:1014F0000000E26820F4E0601043C8F8000008072C
:1015000008D5D8F80000216920F4605040EAC100F5
:10151000C8F80000D8F8000042F20041C0F2F4011F
:1015200000F00C00042808462DD0D8F8000000F088
:101530000C00082843F20060C0F26E1023D0D8F8E7
:10154000002002F00C020C2A1CD1D8F80420D8F894
:10155000043002F00302C3F30313D8F8047001331C
:10156000032A08BF0146B1FBF3F0D8F80410C7F313
:101570000627C1F341610222784302EB4101B0FB2F
:10158000F1F000E00020D8F8001045F62012C1F379
:101590000311C0F60002515C40F2280201F01F0165
:1015A00020FA01F140F22000C2F200000068C2F20D
:1015B00000021160BDE8F047FFF712BC40F22800BE
:1015C00041F20801C2F20000C4F202010068096899
:1015D00045F63012C1F30221C0F60002515C01F061
:1015E0001F01C8407047000040F2280041F2080186
:1015F000C2F20000C4F202010068096845F6301228
:10160000C1F3C221C0F60002515C01F01F01C840C5
:101610007047000080B541F20C01C4F2020151F89C
:10162000040C42F20042C0F2F40200F00C00042864
:10163000104608BF80BD51F8040C00F00C000828CB
:1016400043F20060C0F26E1022D051F8043C03F067
:101650000C030C2B1CBF002080BDD1F800C00B6810
:101660000CF0030CC3F3031E0B680EF1010EBCF16A
:10167000030F08BF02460968B2FBFEF0C3F306235E
:10168000C1F341610222584302EB4101B0FBF1F08A
:1016900080BD00002DE9F04182B0002800F00681F5
:1016A0000446007841F20006C007C4F2020655D194
:1016B0002078800774D42078000700F19780207884
:1016C000400700F1B7802078800600F10781E069CB
:1016D000002840D0B16801F00C010C2940F056817F
:1016E000012800F0E380F068216A00F003028A42DA
:1016F00040F0DC80626A6FF00F0300F0F00103EB52
:101700000212914240F0D280A16A00F4FE42B2EB94
:10171000012F40F0CB80E16A00F07842B2EBC16F5C
:1017200040F0C480226B0023CFF6E07303EA02523C
:1017300000F4C001A2F50012914240F0B780616B45
:101740004FF07E4202EA016100F0C06001F17E418B
:10175000884240F0AB800020F1E100BFB06800F0AB
:101760000C01F06808295BD0032281F00C0122EA09
:1017700000000844B0FA80F0400951D16068B0F52B
:10178000803F07D0B0F5A02F40F0D680306840F4FD
:1017900080203060306840F480303060D7E000BF97
:1017A000B068F16800F00C00042869D001F0030172
:1017B00080F00C0081F002010844B0FA80F040098A
:1017C0005ED1E1683068002900F0CE8040F480707E
:1017D0003060FFF7BFF805463068400500F1EC8047
:1017E000FFF7B8F8401B0228F6D920E16169D6F866
:1017F0009400002900F08C8040F00100C6F89400AD
:10180000FFF7A8F8054600BFD6F8940080073FF51B
:1018100056AFFFF79FF8401B0228F5D907E100BF3C
:10182000306880037FF544AF606800287FF440AFE4
:101830003CE000BFB06D10F0805808D1B06D40F0B2
:101840008050B065B06D00F080500190019847F273
:101850000007C4F200073868C0052BD4386840F48C
:1018600080703860FFF776F8054600BF3868C0051D
:1018700020D4FFF76FF8401B0228F7D9D7E000BF4C
:101880003068400501D5E06880B17068216920F0BA
:10189000FE4040EA0160706040F22000C2F20000A9
:1018A0000068FFF79DFA00283FF405AF012002B061
:1018B000BDE8F081A068012808D0052840F09A8092
:1018C000D6F8900040F00400C6F89000D6F89000DA
:1018D00040F00100C6F890009AE000BFA169D6F878
:1018E0009800002970D040F00100C6F89800FFF77A
:1018F00031F80546D6F8980080073FF5E8AEFFF7C7
:1019000029F8401B02284FF00300F3D917E100BF6C
:1019100020F00100C6F89400FFF71CF8054600BF50
:10192000D6F8940080077FF5CAAEFFF713F8401B86
:101930000228F5D97BE000BF3168002821F480310E
:101940003160316821F48021316000F08F80FFF731
:1019500001F80546306880033FF5AAAEFEF7FAFFAE
:10196000401B6428F6D962E020F480703060FEF7F6
:10197000F1FF0546306840057FF59DAEFEF7EAFFB2
:10198000401B02284FF00300F4D9D8E03168022848
:1019900021F0807131604FD1FEF7DCFF054600BFBA
:1019A0003068800140F18E80FEF7D4FF401B022892
:1019B0004FF00300F4D9C2E07068216920F0FE40C6
:1019C00040EA0160706076E620F00100C6F89800F9
:1019D000FEF7C0FF054600BFD6F8980080077FF5E8
:1019E00076AEFEF7B7FF401B02284FF00300F3D995
:1019F000A5E000BFD6F89010002821F00101C6F83C
:101A00009010D6F8901021F00401C6F890103DD047
:101A1000FEF7A0FF054641F2883700BFD6F89000D8
:101A2000800745D4FEF796FF401BB842F6D9032045
:101A300002B0BDE8F08100BFF0684FF6FF7120F002
:101A40000300F060F068CFF6EE610840F060FEF74A
:101A500081FF0446306880017FF57DAEFEF77AFF96
:101A6000001B02284FF00300F4D968E0FEF772FF74
:101A7000054600BF306880037FF51AAEFEF76AFFA7
:101A8000401B64284FF00300F4D958E0FEF762FFD2
:101A9000054641F2883700BFD6F89000800707D589
:101AA000FEF758FF401BB8424FF00300F4D946E060
:101AB000B8F1000F7FF407AEB06D20F08050B06534
:101AC00001E600BFF06848F20C01C0F29F1104F17A
:101AD000200700EA010C8ECF6FF00F00D4E90C5400
:101AE00000EB02100022CFF6E07241EA0C0102EA9C
:101AF00005520843A2F500124FF07E4540EA03204C
:101B000005EA0465104305F17E4540EAC7602843B5
:101B1000F060306840F080703060F06840F08070B5
:101B2000F060FEF717FF0446306880013FF513AE02
:101B3000FEF710FF001B02284FF00300F4D902B09B
:101B4000BDE8F081411E0020B0EB116F1CBF0120E9
:101B500070474EF21002CEF2000251604EF6235151
:101B6000CEF20001F0230B700721906011607047E6
:101B7000F0B590F83C20012A04BF0220F0BDD1E965
:101B80000232D1E900CE22F47C5223F470531A437E
:101B900048F2FF73CFF6F07303EA0E0342EA030E36
:101BA0000A692CF477234EEA030C22F476224B695F
:101BB00042EA0C021A430B6B22F4742C23F47023B8
:101BC0008A6943EA0C0343EA0243026843F2004E87
:101BD000C4F2010E42F6004C7245C4F2010C01D071
:101BE000624503D1CC6923F080532343724501D071
:101BF000624517D101F12006002770CECFF6F047DD
:101C000023F07C7307EA0656334324F00074234321
:101C1000724543EA050301D0624503D1C96A23F046
:101C200000530B430021536480F83C100846F0BD7C
:101C300070B590F83C20012A4FF0020247D080F89E
:101C40003D20026843F2004C54689368C4F2010CD2
:101C500042F6004E6245C4F2010E01D0724503D136
:101C60004D6824F470042C434FF68F75CFF6FF5562
:101C70000E682C4042F6FF35C4F201053443AA42F7
:101C800054600FDCB2F1804F16D040F20046C4F22F
:101C90000006B24210D040F60006C4F20006B2427E
:101CA0000AD00EE0724507D044F20006C4F20106E5
:101CB000B24201D0624504D1896823F08003194300
:101CC00091600121002280F83D1080F83C201046F0
:101CD00070BD0000002804BF0120704710B5044605
:101CE00090F83D0028B9002084F83C00204600F020
:101CF00023F8022084F83D002068211D01F0FEFB3E
:101D0000012084F8480084F83E0084F83F0084F8FD
:101D1000400084F8410084F8420084F8430084F8CD
:101D2000440084F8450084F8460084F8470084F8AD
:101D30003D00002010BD000081B0006842F6004167
:101D4000C4F20101884201D001B0704741F2600045
:101D5000C4F20200016841F400610160006800F40F
:101D600000600090009801B07047000080B590F8C6
:101D70003C20012A4FF0020200F0A98080F83D20AB
:101D8000D0F800C08822DCF80830CFF6CE721A40B6
:101D9000CCF808200B686F2B10DD1F22C0F2100258
:101DA000934237DCB3F5005F46DA702B00F0928087
:101DB000B3F5805F00F08480D6E000BF2F2B35DDC7
:101DC0004F2B3FDC302B6FD0402B40F0CD80D1F833
:101DD00004E0C968DCF82030DCF8202022F00102A1
:101DE000CCF82020DCF8182022F0F00242EA0111A1
:101DF00023F00A0242EA0E02CCF81810CCF8202098
:101E0000DCF808104FF68872CFF6CF7211404731D8
:101E100054E000BF3F21C0F210018B423ADC202188
:101E2000C0F210018B423FD0302139E0E3B3102BD8
:101E30003AD0202B38D097E060D0B3F1101F33D0C8
:101E400092E000BF502B6DD0602B40F08D80D1F818
:101E500004E0C968DCF8203023F01003CCF820300F
:101E6000DCF81830DCF8202023F4704322F0A002C4
:101E700043EA013142EA0E12CCF81810CCF82020C7
:101E8000DCF808104FF68872CFF6CF721140673138
:101E900014E000BF4021C0F210018B4204D0702139
:101EA000C0F210018B425FD1DCF808104FF6887247
:101EB000CFF6CF721140194341F00701CCF808105A
:101EC0000022012180F83D10002180F83C101046CE
:101ED00080BD00BFD1E901E3C968DCF8082043EA0E
:101EE0000E0322F47F4243EA01211143CCF808108B
:101EF000DCF8081041F07701E0E700BFD1E901E329
:101F0000C968DCF8082043EA0E0322F47F4243EA62
:101F100001211143CCF80810DCF8081041F480418D
:101F2000CCE700BFD1F804E0C968DCF82030DCF869
:101F3000202022F00102CCF82020DCF8182022F02A
:101F4000F00242EA011123F00A0242EA0E02CCF842
:101F50001810CCF82020DCF808104FF68872CFF665
:101F6000CF7211405731A9E70122AAE72DE9F041CC
:101F700090F83C30012B04BF0220BDE8F0814FEA0D
:101F8000B202052A00F28A81DFE812F00600500052
:101F9000A400F8004C01900103681A6AA3F180467E
:101FA00022F001021A621D6A1A465C6852F818CFC4
:101FB0008F68A6F59636D1F800E025F002054FEAC5
:101FC000B626072E45EA07050AD80127B74017F0BD
:101FD000E50F1FBFCF6825F00C0527F004073D4330
:101FE000072E0BD8012707FA06F616F0E50F1FBFDC
:101FF00024F44074D1E9056734433C434FF68C76B2
:10200000CFF6FE760CEA060747EA0E075C609F6192
:102010004F6809695F631D629F6947F008079F6108
:102020009F6927F004079F617DE100BF036843F2C9
:1020300000461A6AC4F2010622F010021A621D6AF2
:102040001A46D3F804C052F8188FB3428E68D1F8FC
:1020500000E025F0200545EA061505D042F60046C9
:10206000C4F20106B34207D1CE686FF0400725F0F5
:10207000C00507EA06163543A3F18046A6F5963655
:102080004FEAB626072E0CD8012707FA06F616F0F7
:10209000E50F1FBFD1E905672CF44064374344EADC
:1020A000870C48F6FF44CFF6FF6404EA080444EACC
:1020B0000E27C3F804C09F614F6809699F631D62C2
:1020C0009F6947F400679F619F6927F480679F615C
:1020D00028E100BF036843F200461A6AC4F2010611
:1020E00022F480721A621D6A1A46D3F804C052F8AC
:1020F0001CEFB3428E68D1F8008025F4007545EAE4
:10210000062505D042F60046C4F20106B34207D1C7
:10211000CE6840F2FF47360225F44065BE433543A2
:10212000A3F18046A6F596364FEAB626072E0CD8C0
:10213000012707FA06F616F0E50F1FBFD1E905677C
:102140002CF44054374344EA071C4FF68C74CFF606
:10215000FE740EEA040747EA0807C3F804C0DF610B
:102160004F680969DF631D62DF6947F00807DF61B7
:10217000DF6927F00407DF61D5E000BF036843F2A1
:1021800000461A6AC4F2010622F480521A621D6ADD
:102190001A46D3F804C052F81C8FB3428E68D1F8A7
:1021A00000E025F4005545EA063505D042F6004624
:1021B000C4F20106B34207D1CE6844F6FF77360376
:1021C00025F44045BE433543A3F18046A6F5963637
:1021D0004FEAB626072E0CD8012707FA06F616F0A6
:1021E000E50F1FBFD1E905672CF44044374344EAAB
:1021F000871C48F6FF44CFF6FF6404EA080444EA6B
:102200000E27C3F804C0DF614F6809691F641D62AF
:10221000DF6947F40067DF61DF6927F48067DF610A
:1022200080E000BF03681A6AA3F1804722F480327D
:102230001A621A46A7F59637D3F820805D6852F8DF
:1022400050EFD1F800C08E684FEAB727072F09D8A2
:102250000124BC4014F0E50F1EBF4C6925F4803505
:1022600045EA042528F4003444EA06444FF68C7607
:10227000CFF6FE7603360EEA060747EA0C075D60E6
:102280001F654F6809699F641C621F6D47F008074E
:102290001F651F6D27F004071F6544E00121002220
:1022A00080F83C200846BDE8F08100BF03681A6A48
:1022B000A3F1804722F480121A621A46A7F59637D6
:1022C000D3F820805D6852F850EFD1F800C08E68D6
:1022D0004FEAB727072F09D80124BC4014F0E50FB7
:1022E0001EBF4C6925F4802545EA842528F4001496
:1022F00044EA065448F6FF46CFF6FF6606F54076F8
:102300000EEA060747EA0C275D601F654F680969FA
:10231000DF641C621F6D47F400671F651F6D27F4A3
:1023200080671F65090213681943116000210022AC
:1023300080F83C200846BDE8F0810000002804BF7A
:102340000120704710B5044690F83D0028B90020E0
:1023500084F83C00204600F023F8022084F83D0079
:102360002068211D01F0CAF8012084F8480084F893
:102370003E0084F83F0084F8400084F8410084F86F
:10238000420084F8430084F8440084F8450084F84F
:10239000460084F8470084F83D00002010BD00008E
:1023A0007047000061B10A1F4FEAB202032A11D838
:1023B000DFE802F00214181C00F13F0318E000BF30
:1023C00090F83E20012A1CBF01207047022280F8AD
:1023D0003E202CE000F143030AE000BF00F140037F
:1023E00006E000BF00F1410302E000BF00F142033C
:1023F0001B78012B1CBF01207047032A08D8DFE897
:1024000002F0030B0F1300BF022280F83F200EE002
:10241000022280F843200AE0022280F8402006E0F1
:10242000022280F8412002E0022280F84220026865
:1024300001F01F010120136A00FA01F18B431362BE
:10244000136A0B43A2F18041A1F596314FEAB12105
:102450000629136244D8884010F0650F40D0506CB4
:1024600042F6FF31C4F2010140F400408A42506458
:1024700010DCB2F1804F1FD040F20040C4F20000E7
:10248000824219D040F60000C4F20000824213D00C
:102490001FE000BF42F60040C4F2010082420BD0B0
:1024A00044F20000C4F20100824205D043F2004031
:1024B000C4F2010082420CD190680721C0F20101F0
:1024C000014006294FF0000008D0B1F5803F08BF59
:1024D0007047106840F0010010600020704700BF96
:1024E00042F6FF30C4F201008242C2DD43F6FF70C3
:1024F000C4F20100824207DC42F60040C4F201004F
:102500008242D3D1D8E700BF44F20000C4F20100F8
:102510008242D1D044F60000C4F20100824202BFE0
:10252000506C40F400405064D3E7000090F88010F5
:10253000012904BF022070472421C0F884100268DA
:102540001168136823F00103136021F00053002188
:10255000416613602022C0F8842080F8801008466D
:10256000704700007047000070470000B0B590F859
:102570008020012A04BF0220B0BD2422C0F884209C
:102580000268D0F864E0D2F800C01368BEF1000F12
:1025900023F001031360936823F0606341EA0301B1
:1025A000916019D09368916845F6601E490FC0F696
:1025B000000E45F668151EF80140C0F60005695C7E
:1025C000C3F34263E400B4FBF1F11EF80340EB5C9B
:1025D000E500B5FBF3F301E001210123A0F86A1047
:1025E0002021A0F86830C2F800C0C0F88410002193
:1025F00080F880100846B0BDB0B590F88020012A60
:1026000004BF0220B0BD2422C0F884200268D0F8A4
:1026100064E0D2F800C01368BEF1000F23F001039C
:102620001360936823F0604341EA0301916019D07D
:102630009368916845F6601E490FC0F6000E45F696
:1026400068151EF80140C0F60005695CC3F34263DB
:10265000E400B4FBF1F11EF80340EB5CE500B5FBD0
:10266000F3F301E001210123A0F86A102021A0F872
:102670006830C2F800C0C0F88410002180F88010D3
:102680000846B0BD7047000070470000704700006A
:1026900070B5016840F62F03CA69044608688E6861
:1026A0001340202B0CD100F0200306F080555B195D
:1026B00017D0216F00297BD02046BDE87040084725
:1026C00040F60F031A420CD00123C1F2000306EAC0
:1026D000030C40F22013C0F20043034013EB0C0341
:1026E00068D1E36E012B05D112F0100318BF10F072
:1026F00010034DD1D3020BD516F4800308D04FF44C
:10270000801220460A62BDE87040FFF7BDBF00BFDF
:10271000110606D500F0800106F40003C91840F048
:102720002B82510640F1068110F0400100F0028139
:10273000206850E8000F216820F0400041E80002C6
:10274000DAB1206850E8000F216820F0400041E82D
:10275000000292B1206850E8000F216820F040008C
:1027600041E800024AB1206850E8000F216820F0DB
:10277000400041E80002002ADAD120200021C4F8FC
:10278000840020466167BDE8704000F07BBB00BF5D
:10279000102008628868400618D4B4F85C00B4F8C9
:1027A0005E10B4F85E20002A18BF884240F0FC8119
:1027B00070BD00BFD30718BF10F4807340F0C6800F
:1027C000930706F0010E00F1CD80D6E0E06F0168BE
:1027D0004A6893B2002BEBD0B4F85C008342E7D296
:1027E000A4F85E200968890600F1A080206850E8FE
:1027F000000F216820F4807041E80002DAB12068FF
:1028000050E8000F216820F4807041E8000292B186
:10281000206850E8000F216820F4807041E8000231
:102820004AB1206850E8000F216820F4807041E828
:102830000002002ADAD1206850E8020F216820F057
:10284000010041E80202C2B3206850E8020F21688B
:1028500020F0010041E802027AB3206850E8020F3C
:10286000216820F0010041E8020232B3206850E8FC
:10287000020F216820F0010041E80202002ADAD1AB
:102880001BE000BF206850E8020F216820F04000E4
:1028900041E80202DAB1206850E8020F216820F016
:1028A000400041E8020292B1206850E8020F21681E
:1028B00020F0400041E802024AB1206850E8020FCF
:1028C000216820F0400041E80202002ADAD12020ED
:1028D000C4F888000020E066206850E8000F2168F6
:1028E00020F0100041E80002DAB1206850E8000F43
:1028F000216820F0100041E8000292B1206850E801
:10290000000F216820F0100041E800024AB1206861
:1029100050E8000F216820F0100041E80002002A72
:10292000DAD1E06FFDF7CAFDB4F85C00B4F85E10D0
:10293000401AB2E1110240F1258110F0804100F00F
:1029400021812046BDE87040FFF79CBE01230B6249
:10295000D4F88C3043F00103C4F88C30930706F0B0
:10296000010E0AD5BEF1000F07D002230B62D4F886
:102970008C3043F00403C4F88C3053070AD5BEF101
:10298000000F07D004230B62D4F88C3043F002030D
:10299000C4F88C3013070CD500F0200353EA0C0365
:1029A00007D008230B62D4F88C3043F00803C4F836
:1029B0008C3013050BD510F0806308D04FF4006302
:1029C0000B62D4F88C3043F02003C4F88C30D4F878
:1029D0008C30002B3FF4ECAE12F020021EBF00F052
:1029E000200006F0805210EB020040F05D81D4F828
:1029F0008C00896800F0280001F04001401807D1E0
:102A00002046FFF743FE0020C4F88C0070BD00BFD5
:102A1000206850E8000F216820F4907041E800021F
:102A2000DAB1206850E8000F216820F4907041E886
:102A3000000292B1206850E8000F216820F49070E5
:102A400041E800024AB1206850E8000F216820F4F4
:102A5000907041E80002002ADAD14FF6FE70CEF6FF
:102A6000FF7000BF216851E8021F2268014042E860
:102A70000213C3B1216851E8021F2268014042E8F5
:102A8000021383B1216851E8021F2268014042E825
:102A9000021343B1216851E8021F2268014042E855
:102AA0000213002BDED1E06E012824D1206850E80B
:102AB000000F216820F0100041E80002DAB1206820
:102AC00050E8000F216820F0100041E8000292B1A8
:102AD000206850E8000F216820F0100041E8000253
:102AE0004AB1206850E8000F216820F0100041E84A
:102AF0000002002ADAD12020C4F888000020E06615
:102B0000216820678868400648D500BF206850E8E3
:102B1000020F216820F0400041E80202DAB120688B
:102B200050E8020F216820F0400041E8020292B113
:102B3000206850E8020F216820F0400041E80202BE
:102B40004AB1206850E8020F216820F0400041E8B7
:102B50000202002ADAD1E06F00B343F2F161C0F65D
:102B600000018163FDF7E2FC00283FF421AEE06F35
:102B7000816BBDE870400847616F00297FF49CAD10
:102B800016E600BFD1017FF513AEB0F1FF3FC8BF1D
:102B900070BD2046BDE87040FFF7E6BC2046BDE8AA
:102BA0007040FFF773BD00BF401A00BF216851E8B5
:102BB000001F226821F4907142E80013DBB1216804
:102BC00051E8001F226821F4907142E8001393B18C
:102BD000216851E8001F226821F4907142E8001337
:102BE0004BB1216851E8001F226821F4907142E83E
:102BF0000013002BDAD14FF6FE71CEF6FF7100BF45
:102C0000226852E8022F23680A4043E80226C6B130
:102C1000226852E8022F23680A4043E8022686B160
:102C2000226852E8022F23680A4043E8022646B190
:102C3000226852E8022F23680A4043E80226002E49
:102C4000DED12021C4F888100021E166216700BF91
:102C5000216851E8001F226821F0100142E80013AA
:102C6000DBB1216851E8001F226821F0100142E821
:102C7000001393B1216851E8001F226821F0100170
:102C800042E800134BB1216851E8001F226821F08F
:102C9000100142E80013002BDAD181B22046BDE8D2
:102CA0007040FFF75FBC00BF226F002A3FF49FAE69
:102CB0002046904721689AE6B0B582B0B0B104468C
:102CC000D0F8840028B9002084F88000204600F065
:102CD00059F82420C4F884002068016821F001011B
:102CE0000160204600F00CFD012803D1012002B054
:102CF000B0BD00BFA06A10B1204600F085FC20687E
:102D0000416821F490414160816821F02A0181608D
:102D1000016841F0010101600020C4F88C00FDF75A
:102D200019FE216805460A6812070CD56FF07E4C23
:102D300020464FF4001100222B46CDF800C000F0D1
:102D400031FE78B92168086840070FD56FF07E4CD6
:102D500020464FF4800100222B46CDF800C000F041
:102D600021FE18B1032002B0B0BD00BF2020C4F87E
:102D70008400C4F888000020E06684F8800002B077
:102D8000B0BD00002DE9F04397B0044601A804301F
:102D90004021FDF709FB206844F20041C4F2000124
:102DA000884203D017B0BDE8F08300BF022501A818
:102DB0000195FEF743F9002818BFFDF779FB41F2B2
:102DC0004C00C4F20200C16840F2080841F400312E
:102DD000C160C168002601F40031129112990168A6
:102DE000C4F2020841F001010160006812A900F07C
:102DF0000100129012980C20CDE9120507201690C0
:102E00004FF09040CDE91466FDF7CEFC40F2AC05E2
:102E1000C2F200051A2080274FF02009C5E9008082
:102E20002846C5E90266C5E90476C5E906692E6249
:102E3000FDF710FC002818BFFDF73AFBE567AC6210
:102E400040F20C1508F11400C2F200051B211022FB
:102E500085E8C7002846C5E90566C5E90796FDF778
:102E6000F9FB002818BFFDF723FB262000210022D4
:102E7000A567AC62FEF708F82620FDF7F1FF17B052
:102E8000BDE8F08370470000FEE700002DE9F04345
:102E900081B0036804469869C00605D4002000216B
:102EA0009A69D70560D465E01020D86198698006DA
:102EB00053D48846481C46D016464FF020090025BA
:102EC00006E000BF0027986900F02000384335D1A4
:102ED000FDF740FD2368B8F1000F02D0801B40458C
:102EE000F0D9596894F842009A6912040CD511F48B
:102EF000804109D1202807D0586840F480405860AC
:102F0000FDF728FD236806469869002702E000BF08
:102F1000236898698006D6D4FDF71CFD801B1A280B
:102F2000F6D3606C012740F02000606484F8419083
:102F300084F8425084F84050EAE700BF7FB90CE0C3
:102F40009869800609D49869800606D49869800635
:102F50005CBF98695FEA8060F2D52020D8610121CA
:102F600004209A69D70505D54FF4807140F001001F
:102F7000D9610121570507D492050BD479B90020F6
:102F800001B0BDE8F08300BF08304FF480619205C6
:102F9000D96104D540F002004FF40071D9619969FC
:102FA000890744BF002199629969C90703D19969CA
:102FB00041F00101996159684EF60002CFF60062B6
:102FC00011405960616C08436064202084F841001E
:102FD000002084F8420084F84000012001B0BDE8E0
:102FE000F08300002DE9F0410446174622686FF394
:102FF0009F21D8B21D4641EA0040516849F60003BE
:10300000CFF600431940DDE90668084400F500509A
:10301000506020463146424600F086F810B101204B
:10302000BDE8F0812168012D09D0380A8862204668
:103030003146424600F078F80028F0D12168F8B215
:1030400088628869400623D436B3701C18D1886919
:1030500040061DD4886940065CBF88695FEA40600D
:1030600016D4886940064FF00000F0D523E000BF79
:103070002068806940064FF0000048BFBDE8F0813D
:10308000FDF768FCA0EB0800B042F1D906E000BFF4
:103090000020BDE8F08100BFFDF75CFC606C40F0F3
:1030A00020006064202084F84100002084F8420061
:1030B00084F840000120BDE8F081000070B515469D
:1030C000044689B10E4600BF20688069800619D485
:1030D000204631462A46FFF7D9FE88B9FDF73AFC6B
:1030E000401BB042F0D911E020688069800644BFDF
:1030F000002070BD204600212A46FFF7C7FE18B108
:10310000012070BD002070BDFDF724FC606C40F014
:1031100020006064202084F84100002084F84200F0
:1031200084F84000012070BD70B5044600688069D5
:10313000800710D415460E4611B3701C17D100BF7E
:1031400020464FF0FF312A46FFF7A0FEF0B9206875
:1031500080698007F4D5002070BD00BFFDF7FAFB41
:10316000401BB04216D8206880698007F3D42046FF
:1031700031462A46FFF78AFE0028EFD006E000BF5E
:10318000204600212A46FFF781FE08B1012070BDCC
:10319000FDF7E0FB606C40F020006064202084F8C4
:1031A0004100002084F8420084F84000012070BDF6
:1031B00080B582B041F24800C4F2020001680022EA
:1031C00041F004010160016801F0040101910199DD
:1031D000016841F0010101600068002100F0010078
:1031E000009000980B20FDF74FFE0B20FDF738FEF6
:1031F0000C2000210022FDF747FE0C2002B0BDE8A4
:103200008040FDF72DBE000081B041F24C00C4F2B9
:103210000200016841F004010160016801F004014D
:1032200000910099016841F020010160016801F0FE
:10323000200100910099016841F0010101600168DD
:1032400001F0010100910099016841F00201016063
:10325000006800F002000090009801B07047000084
:1032600080B540F26C1045F20041C2F20000C4F299
:10327000000147F6FF320023C0F2F0024FF0010CCC
:1032800080E80E10C0E90433C0E906330362FDF79D
:10329000B1FB002818BFFDF70BF940F26C10C2F229
:1032A00000000021FDF75CFB002818BFFDF700F9C6
:1032B00040F26C10C2F200000021FDF777FB0028FD
:1032C00008BF80BDBDE88040FDF7F2B8B0B5A0B042
:1032D00042F60045002468463421C4F201051A94E0
:1032E000CDE91844CDE91544CDE91344CDE91144A5
:1032F000CDE90F44CDE90D44FDF756F840F2B81082
:10330000C2F200009F21FE228023C0E90051C0E9E3
:103310000242C0E904448361FEF7DCFC002818BFC8
:10332000FDF7C6F84FF48050179040F2B810C2F283
:10333000000017A9FEF71AFD002818BFFDF7B8F81E
:1033400040F2B810C2F20000FEF7F8FF002818BFE4
:10335000FDF7AEF840F2B8100024C2F2000014A944
:10336000CDE914441694FEF763FC002818BFFDF75E
:103370009FF860200D900F20CDE90E0440F2B810A8
:10338000C2F200000DA90022CDE91044CDE912449B
:10339000FEF7ECFD002818BFFDF78AF840F2B810E0
:1033A000C2F200000DA90422FEF7E0FD002818BFBC
:1033B000FDF77EF840F2B810C2F200000DA9082215
:1033C000FEF7D4FD002818BFFDF772F800204FF477
:1033D000005140F2B814CDE905104FF00071C2F26F
:1033E00000040490CDE90200CDE90000CDE907001A
:1033F000CDE90910CDE90B0069462046FEF7B8FB80
:10340000002818BFFDF754F82068A84202D020B069
:10341000B0BD00BF41F24C00C4F20200016841F0AF
:10342000040101600068002100F004001B901B985B
:1034300007201B9002201C901F9040F60000CDE951
:103440001D11C4F600001BA9FDF7AEF920B0B0BDF8
:1034500080B540F2042044F20041C2F20000C4F200
:10346000000100234FF00C0C4FF4E13280E80E0015
:10347000C0E90333C0E905C3C0E90733C0E9093334
:10348000FFF71AFC002818BFFDF712F840F20420DD
:10349000C2F200000021FFF7AFF8002818BFFDF7C7
:1034A00007F840F20420C2F200000021FFF75EF8A6
:1034B000002818BFFCF7FCFF40F20420C2F2000015
:1034C000FFF734F8002808BF80BDBDE88040FCF756
:1034D000EFBF0000FEE70000FEE7000070470000BD
:1034E00070470000FDF75EBC4EF68850CEF200003B
:1034F000016841F4700101607047000080B540F23E
:10350000FF7C0268C4F2000C604521DD40F6000338
:10351000C4F20003984224D043F20043C4F20103F2
:1035200098421ED042F60043C4F20103984218D0DC
:1035300043F2FF33C4F2010398421CDC604529DCEE
:10354000B0F1804F3CD040F20043C4F2000335E0BC
:10355000B0F1804F05D040F20043C4F2000398421E
:10356000E6D14B6822F070021A4343F2FF33C4F2F3
:1035700001039842E2DD44F2FF33C4F201039842B2
:1035800012DC43F20043C4F20103984218D044F223
:10359000000311E040F60003C4F2000398420FD08C
:1035A00042F6004308E000BF44F60003C4F2010302
:1035B000984205D044F20043C4F20103984203D17B
:1035C000CB6822F440721A434B6922F0800E8A685D
:1035D00043EA0E03D1F800C00360C262A0F180424A
:1035E000A2F596324FEAB222072AC0F828C007D8BF
:1035F000012303FA02F212F0E50F1CBF096901630F
:103600000121416180BD000080B5816ACA070DD1EA
:103610008A0716D44A071FD40A0728D4CA0631D409
:103620008A063AD44A0658D542E000BF0268D0F86C
:103630002CC0536823F4003343EA0C0353608A0719
:10364000E8D50268D0F830C0536823F4803343EAE9
:103650000C0353604A07DFD50268D0F834C05368C2
:1036600023F4802343EA0C0353600A07D6D502688B
:10367000D0F838C0536823F4004343EA0C03536086
:10368000CA06CDD50268D0F83CC0936823F48053B5
:1036900043EA0C0393608A06C4D50268D0F840C0A0
:1036A000936823F4005343EA0C0393604A0614D54D
:1036B0000268D0F844C05368BCF5801F23F480131F
:1036C00043EA0C03536008D1D2F804C0D0F848E0B4
:1036D0002CF4C00343EA0E035360090658BF80BDB3
:1036E0000168C06C4A6822F400221043486080BD23
:1036F000806A0021A0F85E10A0F85610FEF7C6BF41
:1037000070B5054605F108041ECC0068194341EA6E
:103710000403EE69046846F6F311CCF6FF7121400C
:10372000194331430160416848F2000C21F44051D3
:1037300011434160AA69C4F2000C60451CBF296AAC
:103740000A4381684FF2FF43C1F2FF13194011434E
:103750008160C16AD5F824E021F00F0141EA0E0131
:10376000C16244F6FF31C4F2000188424FF01003F9
:1037700014DD44F60041C4F20001884222D06045C5
:1037800028D043F60001C4F20101884238D141F249
:103790008801C4F202010B687EA22DE044F20041D0
:1037A000C4F2000188421DD044F60001C4F20001B9
:1037B000884225D141F28801C4F2020109680B094F
:1037C00016E000BF41F28801C4F2020109688B09CA
:1037D0000EE000BF41F28801C4F2020109688B0AC1
:1037E00006E000BF41F28801C4F2020109688B08BB
:1037F00045F65012C0F6000203F0030152F82130E2
:10380000604542F20040C0F2F40015D0B6F5004F1A
:1038100024D1082B4FF0010100F2B380DFE803F060
:10382000065E6CB164B1B1B16A0000BFFDF7C6FEBF
:10383000002856D15CE000BF082B4FF0010100F2D8
:10384000A080DFE803F0059E259E1D9E9E9E23001E
:10385000FDF7B4FEC0B1D5F824E019E0082B4FF015
:10386000010100F28E80DFE803F00565738C6B8C3C
:103870008C8C7100FDF7A2FE00285ED164E000BFD1
:10388000FDF7C8FE0028E6D100217AE04FF40040A1
:1038900045F63811C0F6000131F81E106A68B0FB19
:1038A000F1F002EB420188424FF0010169D31303AA
:1038B000984266D8010E000210EB520041F100015F
:1038C0000023FCF7F9FC4FF60052A0F54071C0F25E
:1038D0000F0291424FD3012153E000BFFDF784FE58
:1038E00030B1D5F824E007E0FDF794FE0028F8D1C8
:1038F000002146E04FF4004045F63811C0F60001C3
:1039000031F81E106A68B0FBF1F0510801EB40007D
:10391000B0FBF2F04FF6EF72A0F11001914207D820
:103920004FF6F0710140C0F34200084423E000BFAD
:10393000012126E0FDF758FE30B1D5F824E007E07C
:10394000FDF768FE0028F8D100211AE04FF400408E
:1039500045F63811C0F6000131F81E104FF6EF722F
:10396000B0FBF1F0696800EB5100B0FBF1F0A0F1A1
:103970001001914204D82968C860002101E000BF0D
:1039800001214FF00110A866002208462A676A67E5
:1039900070BD00BF01000000040000000200000034
:1039A000080000002DE9F041044600681546C26990
:1039B0000E461140891BB1FA81F14909A94240F034
:1039C000A080DDF81880B8F1000F29D018F10101AE
:1039D00040F08080C1693140891BB1FA81F1490909
:1039E000A94240F08E80C1693140891BB1FA81F152
:1039F0004909A94240F08580C1693140891BB1FA6B
:103A000081F14909A9427CD1C1693140891BB1FAD0
:103A100081F14909A942DDD00020BDE8F08100BF55
:103A2000FCF798FF206850E8000F216820F4D07060
:103A300041E80002BAB3206850E8000F216820F482
:103A4000D07041E8000272B3206850E8000F21688E
:103A500020F4D07041E800022AB3206850E8000F3B
:103A6000216820F4D07041E80002002ADAD11AE07F
:103A7000206850E8020F216820F0010041E80202AE
:103A8000DAB1206850E8020F216820F0010041E817
:103A9000020292B1206850E8020F216820F0010074
:103AA00041E802024AB1206850E8020F216820F084
:103AB000010041E80202002ADAD12020C4F8840083
:103AC00004F1880020210160002084F88000032098
:103AD000BDE8F0811F4600BFFCF73CFFC01B40451E
:103AE000A0D820680168490744BFC1695FEA015155
:103AF0000AD4C0693040801BB0FA80F04009A84267
:103B0000EAD00020BDE8F0814FF40061016200BFFF
:103B1000206850E8000F216820F4D07041E80002CE
:103B2000BAB3206850E8000F216820F4D07041E853
:103B3000000272B3206850E8000F216820F4D070B2
:103B400041E800022AB3206850E8000F216820F401
:103B5000D07041E80002002ADAD11AE0206850E86B
:103B6000020F216820F0010041E80202DAB120686A
:103B700050E8020F216820F0010041E8020292B1F2
:103B8000206850E8020F216820F0010041E802029D
:103B90004AB1206850E8020F216820F0010041E896
:103BA0000202002ADAD12020C4F88400C4F8880078
:103BB00004F18C0086E7000040F20420C2F200000D
:103BC000FEF766BDFEE7000080B500F031F840F278
:103BD0009000C2F2000090ED012AB0EE401A30EEE3
:103BE000420A9FED112AB0EEC03AB4EE423AF1EE2D
:103BF00010FA0BDD0121B5EE400A0268F1EE10FA71
:103C0000C8BF4FF0FF311144016000E0016800EED1
:103C1000101A9FED062AB8EEC00A20EE020A30EE16
:103C2000010A80ED011A80BD7CD9A040DB0FC9409C
:103C30002DE9F04184B040F20006C2F2000632796C
:103C4000318940F26C1035684FF0640801270DF19E
:103C50000E04C2F200000123CDE90047CDF8088030
:103C6000FCF71AFF002818BFFCF722FC601C318902
:103C7000CDE9000740F26C10EAB2C2F20000012365
:103C8000CDF80880FCF708FF002818BFFCF710FCEF
:103C9000BDF80E0001F076FA9FED0D0B53EC102BE2
:103CA00001F084FA9FED0C0B53EC102B01F07EFA1F
:103CB0009FED0B0B53EC102B01F0C4F800F0E8FF64
:103CC00000EE100A04B0BDE8F08100BF00BF00BFE5
:103CD0008E3BA583F57FB63F182D4454FB21094048
:103CE000000000000080664094B0FDF769F80024F1
:103CF0000020CDE90B44CDE90944CDE90744FDF7A7
:103D0000FFF84FF48071099140210A9101210220AE
:103D10000F9114210690CDE90D00CDE91010CDE9E9
:103D2000120006A8FDF7B6FC20B1EFF3108072B6C2
:103D3000FEE700BF0F2001900320CDE9020401A897
:103D40000421CDE90444FDF7AFFA28B1EFF3108068
:103D500072B600BFFEE700BFFFF756FAFFF728FA7A
:103D6000FFF7B4FAFFF774FBFFF77AFA40F2B814E2
:103D7000C2F2000420460021FEF714FB2046042175
:103D8000FEF710FB20460821FEF70CFB40F20C0664
:103D9000C2F200069FED4A9AD6E90210B0EE080A78
:103DA000F0EE490AC6E9000100F08EF840F6B8309E
:103DB000FCF7E6FCD6E90001484300EE100AB8EE35
:103DC000C08AFFF735FF40F29827C2F2000797ED4F
:103DD000001A28EE000A30EE410A10EE100A01F037
:103DE00085FC9FED358B41EC100BB0EE481AF0EEE0
:103DF000681A00F039FA51EC100B00F049FF0AEE96
:103E0000100A01F073FC55EC184B22462B4600F0CB
:103E100071FF00F03DFF00EE100AB5EE40AAF1EE92
:103E200010FAB8BFB0EE40AA9FED260AF0EE490A9C
:103E300087ED00AA00F048F8FFF7C6FED6E90001BA
:103E400096ED049A484300EE100AB8EEC0AAFFF7B8
:103E5000EFFE97ED001A2AEE000A30EE410A10EE4E
:103E6000100A01F043FC41EC100BB0EE481AF0EEE2
:103E7000681A00F0F9F951EC100B00F009FF0AEE96
:103E8000100A01F033FC22462B4600F033FF00F00D
:103E9000FFFE00EE100AB5EE40AAF1EE10FAB8BF30
:103EA000B0EE40AAB0EE490AF0EE4A0A00F00CF873
:103EB000C2E700BF00BF00BF182D4454FB211940CA
:103EC000E4CB9640000000002DE9F04F81B02DEDCD
:103ED000088B82B040F22C07C2F2000797ED001A5F
:103EE000BEEE002A21EE029AB4EE409AF1EE10FAEC
:103EF0000CDCB6EE002A21EE021AB4EE401AF1EE06
:103F000010FAB8BFB0EE410AB0EE409A10EE900A37
:103F100001F0ECFB9FED8C8B41EC100BB0EE481ADE
:103F2000F0EE681A00F0A0F951EC100B00F0B0FEB2
:103F30000AEE100A01F0DAFB53EC182B00F0DAFE5F
:103F400000F0A6FE19EE104A00EE100AB5EE40AAE7
:103F500084F00040F1EE10FAB8BFB0EE40AA01F0D4
:103F6000C5FB05461AEE100A0E4601F0BFFB41ECF8
:103F7000180BB0EE480AF0EE680A00F0F9F951ECBF
:103F8000100B2A46334601F011F900F081FE40F291
:103F90009806C2F200063061204601F0A7FBB0EEA1
:103FA000480AF0EE680A04460D4600F0F9F851ECB4
:103FB000100B22462B4601F0F9F800F069FE97ED50
:103FC000008A96ED04AAB6EE000A28EE00BA3AEE90
:103FD0000B9A306086ED019A01F088FB82461AEE5A
:103FE000100A8B4601F082FB9FED590B04460190AD
:103FF0000D46009153EC102B5046594601F0D6F86F
:1040000022462B4601F084FA9FED530B54EC105BD3
:104010002A46234601F0CAF880461BEE100A89465C
:1040200001F064FB42464B4606460F4600F062FE36
:1040300000F02EFE40F298089FED490BC2F20008F6
:104040000AEE100AC8F8080053EC102B50465946E7
:1040500001F0ACF8DDE9003201F05AFA2A462346B5
:1040600001F0A4F802460B463046394600F042FE05
:1040700000F00EFE89EE080A8AEE081A02EE100A17
:1040800082EE082AB7EE003A9FED374AC8F80C00D6
:10409000B0EE445A40F2B810C2F20000B4EE430A47
:1040A000F1EE10FAC8BFB0EE430AB5EE400AF1EEE9
:1040B00010FAB4EE431AC8BFB0EE405AF1EE10FA4F
:1040C000C8BFB0EE431AB5EE401AF1EE10FAB0EEEA
:1040D000440AB4EE432AC8BFB0EE410AF1EE10FA2A
:1040E000C8BFB0EE432A0068B5EE402A90ED0B1A27
:1040F000F1EE10FAB8EE411AC8BFB0EE424A25EE12
:10410000011A90ED0B2ABDEEC11A11EE101AB8EE8D
:10411000421A20EE010A90ED0B1ABDEEC00A10EE15
:10412000102AB8EE410A24EE000ABDEEC00A10EED5
:10413000103A41638263C36302B0BDEC088B01B0E7
:10414000BDE8F08F00BF00BF182D4454FB2119407B
:10415000AA4C58E87AB6FB3F000000000000E03FA0
:10416000AA4C58E87AB6FBBF0000000003B40198DF
:104170004100009850EAC12018BF04204A0D18BF22
:1041800040F0010040F2FF72B2EB515F08BF40F017
:104190000200012808BF052002B07047000000009F
:1041A00010B52F499FED2C1B2DED020B84B0059807
:1041B00020F000408842D8BF9DED040B2DDD294939
:1041C000884209D1049840B94FF00100FCF71BF96F
:1041D00000F026FD06B010BD05DB9DED040B00F0E0
:1041E00013FD06B010BD68469DED040B00F024F9E8
:1041F00010F0030004BF9DED021B9DED000B0CD0E1
:1042000001280ED09DED021B9DED000B022817D05A
:10421000012000F061FC06B010BD00F029FB06B0E3
:1042200010BD9DED021B9DED000B012000F054FC24
:1042300051EC100B00F020FD06B041EC100B10BD4E
:1042400000F016FB51EC100B00F016FD06B041EC2F
:10425000100B10BD00000000000000000000000076
:10426000FB21E93F0000F07F10B52DED040B86B077
:104270009DED060B10EE100A10EE901A8DED000B5E
:10428000002818BF0120084320F00040C0F17F60E3
:1042900000F1E040C00F21D19DED080B10EE101A87
:1042A00010EE900A8DED000B002918BF0121084384
:1042B00020F00040C0F17F6000F1E040C00F0DD160
:1042C00029490798B1EB400F04BF0698002842D057
:1042D0000998400004BF089800283CD09DED080BC9
:1042E00053EC102B9DED060B51EC100B01F056F822
:1042F000CDE902019DED020B40F2FF7110EE900A34
:104300008DED000B31EA105021D00798039900F091
:10431000004001F00041884219D09DED080B8DED61
:10432000040B9DED020B8DED000B10EE900A05992C
:1043300061F31E0005909DED041B9DED020B51ECF9
:10434000110B53EC102B01F0D7F8CDE902019DEDD4
:10435000020B0AB010BD0120FCF755F80AB0BDE809
:10436000104000F05DBC00000000E0FF0000000015
:1043700010B52F499FED2C1B2DED020B84B0059835
:1043800020F000408842DCBF00209DED040B32DDB0
:104390002849884209D1049840B94FF00100FCF740
:1043A00032F800F03DFC06B010BD05DB9DED040BBE
:1043B00000F02AFC06B010BD68469DED040B00F02D
:1043C0003BF810F0030011D0012818D09DED021B1E
:1043D0009DED000B02281AD000F04AFA51EC100BA8
:1043E00000F04AFC06B041EC100B10BD9DED021B25
:1043F0009DED000B012000F06FFB06B010BD9DEDA0
:10440000021B9DED000B00F033FA06B010BD012039
:1044100000F062FB51EC100B00F02EFC06B041ECFA
:10442000100B10BD000000000000000000000000A4
:10443000FB21E93F0000F07F2DE9F14F04462DED0F
:10444000020B2DED088B8AB09FEDE70B80ED020B80
:10445000139EE74826F0004585420ADC9DED120BCD
:10446000002084ED000B0AB0BDEC088B03B0BDE862
:10447000F08FE0489FEDE0AB9FEDE1BBA84247DD48
:10448000E14F9FEDE39B9FEDE48B9DED120B53EC11
:104490001A2B51EC100B002E1CDD01F039F841EC09
:1044A000100BBD4208D053EC1B2B51EC100B01F04C
:1044B0002FF8C4E900010BE053EC192B51EC100B61
:1044C00001F026F853EC182B01F022F8C4E90001A2
:1044D0000120C8E700F00EFC41EC100BBD4208D0F3
:1044E00053EC1B2B51EC100B00F004FCC4E9000151
:1044F0000BE053EC192B51EC100B00F0FBFB53ECD1
:10450000182B00F0F7FBC4E900014FF0FF30AAE7D9
:10451000C348A84279DB9DED120B51EC100B00F063
:104520009FFB41EC180B9FEDC00B53EC102B00F0E0
:104530003DFE9FEDBF1B53EC112B00F0DBFB00F0A9
:10454000DBFD074600F007FE41EC190B53EC1A2B7C
:1045500000F02CFE53EC182B00F0CEFF41EC180BB2
:1045600053EC1B2B51EC190B00F020FEDFF8C8A216
:1045700041EC100B4FEA15580125FA4453EC102B6F
:1045800051EC180B00F0C4FF032DC4E900013DD02D
:10459000C1F30A5005EB4511A8EB00001139814227
:1045A00034DA0AEB051BB0EE48AA9BED000BF0EEE7
:1045B00068AA53EC102B51EC190B00F0F7FD41ECFD
:1045C0001B0B51EC1A0B53EC1B2B00F0A1FF41EC21
:1045D000180B51EC1A0B53EC182B00F099FF53EC0D
:1045E0001B2B00F095FF9BED020B41EC1A0B53ECDB
:1045F000102B51EC190B00F0D9FD53EC1A2B00F0E5
:1046000087FF41EC100B6D1CB8E70EE0002EA8BF31
:104610003846BFF628AF94ED000B51EC100B00F0BC
:104620002BFBC4E9000178421DE7C6F3130040F4F8
:10463000801EC6F30A50A0F2F530471100F01F05A6
:10464000C5F12000DDF848B00890002006900790E2
:104650000520EC467949002D07EB0002794408BF9C
:1046600051F8221009D051F8223001EB8201AB4001
:104670004A68089922FA01F11943A1FB0E26A1FB11
:104680000B131A449A4234BF0123002303EB06089C
:104690000CEB8003D3E901A60E448E4234BF012106
:1046A000002192448A4411B1924502D903E0924517
:1046B00001D2012100E00021C3E901A641444CF8E8
:1046C0002010011EA0F10100C4DC029800F100508E
:1046D000850F0298DDE903678000DDF8148000F0A3
:1046E0003AFD41EC1A0B304600F04CFD9FED541B97
:1046F00053EC112B00F05AFD41EC1B0B384600F037
:1047000041FD9FED511B53EC112B00F04FFD41EC8F
:10471000180B404600F036FD9FED4D1B53EC112B5E
:1047200000F044FD41EC190B51EC180B53EC192B24
:1047300000F0E0FA53EC1B2B00F0DCFA53EC1A2BE0
:1047400000F0D8FACDE90801002008909DED080B93
:1047500053EC1A2B51EC100B00F0DAFE53EC1B2B30
:1047600000F0D6FE53EC182B00F0D2FE53EC192BC0
:1047700000F0C2FE9FED381B53EC112B00F016FD2C
:104780009FED370B41EC180B53EC102B9DED080BF4
:1047900051EC100B00F00AFD53EC182B00F0AAFAB4
:1047A0009FED310B41EC180B53EC102B9DED080BDA
:1047B00051EC100B00F0FAFC53EC182B00F09AFAB5
:1047C00041EC100B139810F0004F06D06D4251ECE5
:1047D000100B00F051FA41EC100B284684ED000B51
:1047E00041E60000000000000000000000000000A2
:1047F000FB21E93F7CD9024000004054FB21F93FF6
:104800003163621A61B4D03DFB21F93F0000000022
:104810000000601A61B4D03D7370032E8A19A33B67
:10482000FB2139410000000083C8C96D305FE43FBF
:10483000000000000000E03FAA120000F811000094
:10484000000000000000103E000000000000103CCE
:10485000000000000000103A182D4454FB21F93DDF
:104860003326A611460B113C00000054FB21F93DF4
:1048700010B52DED040B2DED088B82B0B0EE419AF2
:10488000F0EE619A0B9820F000449FED4BABB4F131
:10489000795F11DA9DED0A0B51EC100B00F02CFC46
:1048A000002801BFB0EE4A0AF0EE6A0A02B0BDEC81
:1048B000088B04BF04B010BD9DED0A0B53EC102B08
:1048C00051EC100B00F072FC41EC180B3C48062137
:1048D000B0EE480AF0EE680A784400F081F853EC34
:1048E000182B51EC100B00F061FC9DED0A0B41EC14
:1048F0001B0B53EC192B51EC100B00F057FC41EC47
:10490000190B53EC1B2B51EC180B00F04FFC53EC24
:10491000192B00F0FDFD9FED2C0B41EC190B53EC16
:10492000102B51EC180B00F041FC41EC100B284807
:10493000844210DA53EC192B51EC100B00F0E8FD17
:1049400053EC1A2B00F0D8FD41EC100B02B0BDEC7B
:10495000088B04B010BD1F48A042BCBF9FED1E1BBA
:104960008DED001B06DBA4F50010019000200090E7
:104970009DED001B51EC100B53EC112B00F0C8FD0A
:104980009DED000B41EC180B53EC102B51EC1A0B66
:1049900000F0BEFD41EC1A0B53EC192B51EC180B37
:1049A00000F0B6FD53EC1A2B00F0A6FD41EC100B05
:1049B000CCE7000000000000000000000000F03F15
:1049C0001C0F000000000000000000000000E03F9D
:1049D0003333D33F0000E93F000000000000D23F26
:1049E00070B504462DED028B4D1E00EBC500B0EEF8
:1049F000408AF0EE608A90ED000B35F0060017D08B
:104A000053EC182B51EC100B00F0D0FB41EC100BC9
:104A10006D1E04EBC50090ED001B51EC100B53EC28
:104A2000112B00F067F941EC100B35F00600E7D1CF
:104A3000022D36D0042D1CD0062D1CBFBDEC028BE0
:104A400070BD53EC182B51EC100B00F0AFFB94ED44
:104A50000A1B53EC112B00F04DF953EC182B00F00E
:104A6000A5FB94ED081B53EC112B00F043F941EC2E
:104A7000100B53EC182B51EC100B00F097FB94ED3E
:104A8000061B53EC112B00F035F953EC182B00F0FA
:104A90008DFB94ED040B53EC102B00F02BF941EC43
:104AA000100B53EC182B51EC100B00F07FFB94ED26
:104AB000021B53EC112B00F01DF953EC182B00F0E6
:104AC00075FB94ED001B53EC112B00F013F9BDECBA
:104AD000028B41EC100B70BD31B504462DED040B7B
:104AE0002DED0A8BB0EE41BAF0EE61BA0B989DED58
:104AF0000A0B20F00040B0F1795F0DDA51EC100B99
:104B0000FFF734FB042808BF00F09AF89DED0A0B6C
:104B1000BDEC0A8B05B030BD53EC102B51EC100BE3
:104B200000F044FB41EC180B9DED0A0B53EC182BE5
:104B300051EC100B00F03AFB41EC190B2C48B0EE95
:104B4000480AF0EE680A05217844FFF749FF9FED17
:104B50002ACBB0EE40AAF0EE60AA9CB353EC1C2B1B
:104B600051EC190B00F022FB41EC1C0B53EC1A2BFF
:104B700051EC190B00F01AFB9FED210B41EC190BC6
:104B800053EC102B51EC1B0B00F010FB53EC192BCA
:104B900000F0BEFC53EC182B00F008FB53EC1B2B71
:104BA00000F0B6FC53EC1C2B00F0B2FC9DED0A1B90
:104BB00053EC112B00F0A0FCBDEC0A8B05B041ECCE
:104BC000100B30BDFFE753EC1A2B51EC180B00F023
:104BD000EDFA53EC1C2B00F08DF853EC192B00F080
:104BE000E5FA9DED0A1B53EC112B00F083F8E3E787
:104BF000AC0D000000000000495555555555C5BF86
:104C0000000000000000E03F10B553EC102B51EC09
:104C1000100B00F06FF841EC100B10BD000000000D
:104C20009FED050B10B553EC102B51EC100B00F061
:104C300009F941EC100B10BD00000000000000005D
:104C40009FED050B10B553EC102B51EC100B00F041
:104C5000ADFA41EC100B10BD000000000000001088
:104C600082B0CDE9000121F0004001909DED000BE4
:104C700002B051EC100B704781F00041704780F09A
:104C80000040704721F00041704720F0004070471D
:104C900021F0004201F00043A2F16052B2F5801F02
:104CA00028BFD2F17F6C0BD95FEA001C43EAC20235
:104CB00042EB507018BF704728BF20F001007047CA
:104CC000B2F5801FBCBF184670474FEA410C1CF577
:104CD000001F02D2084600F087BD70B500F010FB3F
:104CE00000000089FFF7F6BF4FF00040A0F58000FC
:104CF0007047000010B591EA030F48BF83F00043EE
:104D000000F10E84841A71EB030C05D2121943EBE7
:104D10000C03001B61EB0C014FEA1154A4EB135C74
:104D2000DFF81CE11EEA430F18BF9EEA445F00F063
:104D3000748021EA045123EA0E0343F48013DCF16A
:104D4000200E32D322FA0CFE10EB0E0023FA0CFEDA
:104D500041EB0E01CCF1200E03FA0EFE10EB0E001B
:104D6000CCF1200E51F10001B1F5801F32D201EBE0
:104D7000045112FA0EF2BDE8104058BF7047401CB3
:104D800038BF5FEA420218BF7047002814BF20F006
:104D9000010041F100014FEA410313F5001F38BF44
:104DA0007047A1F1C04100F0A1BB012A43EB03020F
:104DB000ACF1200CDCF11F0E32BF4FF0000E23FAD5
:104DC0000CF310EB030041EB0451B4EB115FD0D0B6
:104DD000A1EB045101F58011490801EB04515FEA90
:104DE00030000ED350F1000038BF12FA0EFE08D189
:104DF000BDE81040C9E7401C38BF5FEA4202CAD193
:104E0000C3E7BDE810404FEA410313F5001F38BF68
:104E10007047A1F1C04100F069BB9EEA445F08D031
:104E200011EA5E0FBDE8104004BF01F00041002010
:104E30007047BDE8104070B500F062FA64FBBE3EFA
:104E40000000E0FF2DE9C04130B4DFF8A4C23CEA25
:104E5000111418BF3CEA131400F0ED801CEA111481
:104E600081EA030544EAD57418BF1CEA131500F063
:104E7000C880A4EB050404F17F7404F500344FF0FE
:104E8000004545EAC12145EAC32341EA505143EABE
:104E900052534FEAC0204FEAC222994208BF9042C3
:104EA00000F09D804FEA13650FF24416765D4FEADD
:104EB000134506FB05F7C7F1807706FB07F74FEAB6
:104EC000D737A7FB03687642A7FB06CEC8F5803824
:104ED00038BFA8F1010807FB08E6A6FB028C4FF0DB
:104EE000000EE6FB03CEDCF1000CCEF1004E38BF25
:104EF000AEF1010EA6FB0C584FF00007E6FB0E8743
:104F0000A1FB08C6A0FB07CE16EB0E064FF000056E
:104F100045F10005E1FB076515F1E04E7EBFA4F504
:104F200080345FEA46066D4116F1800745F10005C1
:104F30004FEA172747EA05674FEA15254FEA066645
:104F4000A6F1DE46B6F1805F20D9384605EBC47184
:104F500024F0010C01EB0C11BCF1FE6F02D8F0BC87
:104F6000BDE8008124425CBF01F5801E9EEAC47F3B
:104F700002D4F0BCBDE80081244200F13980A1F1E7
:104F8000C041F0BCBDE8004100F0B0BA4FEAD0200B
:104F900040EA41504FEAD1214FEAD22242EA43523D
:104FA0004FEAD323A7FB028607FB036605FB0266D5
:104FB0001EEA0E0F58BFA6EB0056B6EB00564FEA9E
:104FC000520E4EEAC37E18EB0E0E56EB530EBCD5B6
:104FD00018EB02085E417F1C55F10005B5E74FF460
:104FE00080154FF000074FF000064FF00008ACE7C7
:104FF00001F1C04101F000414FF00000F0BCBDE8FC
:1050000000810CEA131511EA0C1F00D00CE013EA22
:105010000C1F00F026804FF0000081EA030101F030
:105020000041F0BCBDE80081F0BCBDE8004181EA70
:10503000030100F05BBAF0BCBDE8004170B500F0C0
:105040005FF900BF097EFC3E00F007B84FF000009A
:1050500081EA030101F00041704781EA030100F099
:1050600045BAF0BCBDE8004122494FF0000070474E
:10507000FFFDFBF9F7F5F4F2F0EEEDEBE9E8E6E41D
:10508000E3E1E0DEDDDBDAD8D7D5D4D3D1D0CFCDA4
:10509000CCCBCAC8C7C6C5C4C2C1C0BFBEBDBCBBDD
:1050A000BAB9B8B7B6B5B4B3B2B1B0AFAEADACABD8
:1050B000AAA9A8A8A7A6A5A4A3A3A2A1A09F9F9EB2
:1050C0009D9C9C9B9A999998979796959594939364
:1050D000929191908F8F8E8E8D8C8C8B8B8A8989FB
:1050E000888887878685858484838382828181807E
:1050F0000000FF070000F87F4FEA41034FEA5353D7
:10510000A3F58063D3F11E03C8BFD3F1210C0CDDDE
:105110004FF0004242EAC12242EA505232FA03FC06
:105120008CEAE17CACEBE1707047102BC4BF00202F
:10513000704703F5787CBCF1FF3F04D06FF000426C
:1051400082EA2100704770B500F0DAF849922480B5
:1051500000207047F2E710F0004248BF4042B0FA2A
:1051600080F310FA03F10AD0C3F11D0303F5806345
:1051700002EB03524FEA415002EBD12170474FF04E
:1051800000007047B0FA80F310FA03F10AD0C3F1BF
:105190001D0303F580634FEA03524FEA415002EBCF
:1051A000D12170474FF000007047000070B5DFF864
:1051B00048C11CEA111E1EBF1CEA13159EEA0C0F03
:1051C00095EA0C0F00F06F8081EA03044EEAD47E6A
:1051D000AE4421EA4C1123EA4C1341F4801143F40C
:1051E0008013AEF17F7EA1FB024CA0FB0365361954
:1051F00055EB0C05A1FB034C4CF10003A0FB021C7A
:1052000016EB0C06654153F10003094218BF46F046
:10521000010613F4007F0BD14FEA03314FEA05304A
:1052200041EA155140EA165034036FF003020AE0D8
:105230004FEAC3214FEAC52041EA555140EA565092
:10524000F4026FF0020202EB2E4201EB025585EAF6
:10525000CE710AD05FEA440C18BF24F0004450F12C
:10526000000041F1000120EAD47040F2FE7C62456A
:1052700000D270BDA84214BF4FF080444FF04044AC
:10528000002E08BF0024BEF1806FA8BFA1F1C0416D
:10529000BDE8704080F22A8101F1C04101F0004177
:1052A0004FF0000070470CEA13159EEA0C0F18BF70
:1052B00095EA0C0F06D081EA030E4FF000000EF0C5
:1052C000004170BD00F01CF88900013E00F007B8F5
:1052D00000F009B84FEA430C5FEA5C5C08D081EA51
:1052E000030100F003B94FEA410C5FEA5C5CF6D1C0
:1052F00002494FF0000070470000FF070000F87FF0
:105300000EF1020E2EF0030E5EF8046B364205D449
:10531000012A43EB030515F5001F12D8012841EBC4
:10532000010C1CF5001F0CD80ED14FEAD17C0CEB00
:105330004C0C0CF1020C15F5001F08BF4CEBD37C94
:1053400004E04FF0080C01E04FEAD37C0CEB4C0575
:1053500026FA05F606F00706B6F1040C06D20EEBA7
:10536000860CBDE870404CF0010C6047DFE80CF0A3
:10537000090B02024FF00041A1F500214FF000009F
:1053800070BD19461046012851EB010418BFD4F531
:10539000001484BF002001F0004170BD70B5DFF83B
:1053A00044C13CEA111418BF3CEA131500F08F8089
:1053B00011F1004F0CEA11141CEA131568BF45F0F7
:1053C000050518BF11EA0C1F00F0798021EA4C1185
:1053D00023EA4C1341F4801143F480132E46A5F5C3
:1053E0008035AC423DDDA4F58036801A994109D55F
:1053F0004042C1F1000134BFB1F10101B1F100013E
:1054000085F0010511F4F01F08D011F4801FE8D1D8
:10541000400041EB0101A4F58034F6E721F00041A2
:10542000B1FA81F6202E04BFB0FA80FE0EF12006FC
:10543000A6F10B06A4EB0644B6F1200E0CD2C6F181
:10544000200E01FA06F120FA0EF641EA0601CEF12D
:10545000200600FA06F003E000FA0EF14FF000001B
:10546000BFE750EA410E23D04FEA244EBEEB254F52
:105470000FDB994208BF904204D00AD3520043EB9D
:105480000303B0E74FEA1646B6EB144F08BF85F0AA
:105490000105B4F5803401EB041181EAC57100DB2C
:1054A00070BD01F1C04101F000414FF0000070BD3E
:1054B0004FEA45714FF0000001F0004170BD1CEA59
:1054C000131F09D04FF0000001F0004170BDFFF73D
:1054D00017FF00BFEDFFFF3EBDE8704002494FF0EF
:1054E000000070470000FF070000F87F0808A0F5E3
:1054F00000114FEA3101704710B591EA030F81F0B6
:1055000000413FF5FFAB83F0004300F009B8000015
:1055100010B591EA030F48BF83F000433FF5F2ABAB
:10552000841A71EB030C07D28CF0004C121943EB78
:105530000C03001B61EB0C014FEA1154A4EB135C4C
:10554000DFF8A4E11EEA430F18BF9EEA445F00F0B3
:10555000B48021EA045123EA6E035242C3EB6E0386
:1055600038BF5B1EDCF1200E25D322FA0CFE10EBB7
:105570000E0043FA0CFE41EB0E01CCF1200E03FAB3
:105580000EFE10EB0E00CCF1200E51F1000129D4DB
:1055900001EB045112FA0EF2BDE8104058BF7047FB
:1055A000401C1CBFB2F1004F704700280CBF491CC3
:1055B00020F00100704712EB020E43EB030218BF0C
:1055C0004FF0010E4EEA4202ACF1200CDCF11E0E4F
:1055D00056D943FA0CFE10EB0E00CCF11E0E51F121
:1055E000FF31D5D50EF1010E12FA0EFE404141EB0E
:1055F000010101EB445C5FEA5C5C10D901EB0451F2
:1056000010EBDE7038BFBEF1004FBDE8104018BF90
:10561000704700280CBF491C20F00100704734D2AD
:105620004FEAD42C24F4006411F500111BD0B1FA18
:1056300081F20B3AA41AA41ED2F12003914030FA51
:1056400003F31943904001EBCC7101EB0451002CA2
:10565000BDE81040A8BF704701F1C04101F0004112
:105660004FF000007047B0FA80F310FA03F102D156
:10567000BDE810407047E41A173C4805C90AE2E744
:1056800001EB0451BDE81040704749104FEA30006B
:1056900001EB0451BDE8104002E04FF000017047FB
:1056A0004A0008BF0042F8D0B2F5001F28BF70477B
:1056B00001F000414FF0000070479EEA445F07D0C0
:1056C00011EA5E0FBDE8104004BF002100207047C2
:1056D000BDE8104070B5FFF713FE00BF40DFF63E97
:1056E000104683F0004170470000E0FF43004FEA9E
:1056F000D30C4FEA3C0C43401FBF40070CF16051F4
:1057000013F0FE4F70471CF0006F03D10CF0004106
:10571000002070470CF0004343EA507040EACC0090
:1057200010B500F00EF800BF000000924FEA000133
:10573000FFF7DCBE4FF00041A1F500214FF0000063
:1057400070470EF1020E2EF0030E5EF8044B244259
:1057500004D44FEA4102B2F17F4F11D84FEA40031F
:10576000B3F17F4F0CD80ED14FEAD07C0CEB4C0C30
:105770000CF1020CB2F17F4F08BF4CEBD17C04E07E
:105780004FF0080C01E04FEAD17C0CEB4C0324FAFB
:1057900003F404F00704B4F1040C06D20EEB840CFD
:1057A000BDE810404CF0010C6047DFE80CF0070842
:1057B00002024FF00040A0F5800010BD08464200F4
:1057C00018BFD2F1807288BF00F0004010BDF1EE2A
:1057D000100A4FF6FF71C0F2C03120EA010040F01C
:1057E0004070E1EE100A7047FF2141EAD050C00539
:1057F00070470000000000004C5555555555A53F19
:105800007751C1166CC156BF9015CB19A001FA3E55
:10581000AD529C804F7E92BEC4B1B4BD9EEE213E7F
:10582000D43888BEE9FAA8BD00004054FB21F93FF6
:105830003163621A61B4D03D0000601A61B4D03D9A
:105840007370032E8A19A33B0000002E8A19A33B14
:10585000C14920259A837B39000000000000000028
:105860006E83F9A22915444ED15727FCC0DD34F5CB
:10587000999562DB4190433CAB6351FE61C5BBDE51
:105880003A6E24B7E0D24D42EA2E49061C92D10965
:105890001CEB1DFE3EA729B1F53582E88444BB2EE2
:1058A00026709CE9417E5FB439D69139F43953832F
:1058B0008B5F849C3B28F9BDFF97F81F0F9805DE8E
:1058C0008B112FEF1F6D0A5ACF7E366DB709CB278C
:1058D000663F464F2DEA5F9EC7BA27757BF1E5EB21
:1058E000F739073DEA92528AB15FFB6B085D8D1F65
:1058F0004630035600000000A6F810111111813F38
:10590000D561C119A0012ABF7DFEB157E31DC73E75
:10591000EB9C2B8AE6E55ABE7CD5CF5A3AD9E53DB9
:10592000000000000000000001020304060708094F
:105930000000000001020304010002000400060050
:1059400008000A000C001000200040008000000148
:105950000000000004000000020000000800000039
:10596000010101030701000008040204080101010C
:1059700090590008000000203000000014020008C8
:10598000C0590008300000207008000030020008F4
:105990000C0000000D0000003600000001000000B7
:1059A00001000000FFFFFFFF070000000000803F34
:1059B00010000000010000000024F4009A99494101
:04000005080001D915
:00000001FF
